:100000000C943A000C9435020C9435020C94350291
:100010000C9435020C9435020C9435020C94350284
:100020000C9435020C9435020C9435020C94350274
:100030000C9435020C94DB010C9464000C94350292
:100040000C9435020C9435020C9435020C94350254
:100050000C9435020C9435020C9435020C94350244
:100060000C9435020C9435020100010400046E0169
:100070000401068011241FBECFEFD8E0DEBFCDBF44
:10008000E8E6F0E040E017C0B591A59135912591E3
:10009000059107FD0CC095918591EF01F92FE82F8F
:1000A00005900D92A217B307D9F7FE0104C01D9267
:1000B000A217B307E1F7E437F40731F70E949F0175
:0800C0000C946200F894FFCFDC
:1000C8001F920F920FB60F9211242F933F934F93C5
:1000D8005F936F937F938F939F93AF93BF93EF93A8
:1000E800FF938091040190910501892B11F40E94DE
:1000F80003028091040190910501019711F40E9477
:10010800F8018091040190910501029711F40E9471
:10011800BE008091040190910501039711F40E949B
:100128005B018091040190910501049711F40E94EC
:1001380019018091040190910501059711F40E941D
:10014800EC008091040190910501069711F40E943A
:100158000D02FF91EF91BF91AF919F918F917F9188
:100168006F915F914F913F912F910F900FBE0F901C
:040178001F90189527
:10017C00809100019091010101969093010180936F
:10018C00000168EE73E00E94B301892BF1F495B184
:10019C0084E0892785B98091020190910301019631
:1001AC008B3091052CF490930301809302010895F8
:1001BC0081E090E090930301809302012A9A83E0FE
:0C01CC0090E090930501809304010895D9
:1001D8008091000190910101019690930101809313
:1001E800000168EE73E00E94B301892B29F42A9A72
:1001F80095B181E0892785B980910001909101012D
:1002080060ED77E00E94B301892B21F495B182E07B
:10021800892785B90E941E02892B31F086E090E07B
:0A02280090930501809304010895EE
:1002320080910001909101010196909301018093B8
:10024200000168EE73E00E94B301892BC9F480912A
:1002520002019091030101968B3091052CF4909349
:10026200030180930201089581E090E090930301DD
:100272008093020185E090E0909305018093040150
:020282000895DD
:10028400F89482E08093800099E190938100219A10
:1002940080936F0086BB83EF91E0909389008093F5
:1002A400880083B7817F83BF83B7816083BF7894DD
:0202B4000895AB
:1002B6000E942E02892B21F40E941602892B31F00E
:1002C60084E090E090930501809304010E941E0251
:1002D600892B31F086E090E090930501809304012C
:0202E600089579
:1002E800F8948FE187BD84B5826084BD85B584604C
:1002F80085BD16BCEEE6F0E080818260808383B71E
:0E030800817F83BF83B7816083BF789408959F
:100316000E942E02892B11F088E085B90E941602F0
:10032600892B19F080E185B9089583B1887083B966
:0803360083B1807183B90895C1
:10033E0010920501109204010E9403020E94ED0129
:10034E000E9442010E9474010E948B01789488954C
:08035E0083B78E7F83BFF8CF47
:1003660097FB072E16F4009407D077FD09D00E945C
:10037600C70107FC05D03EF4909581959F4F0895DF
:08038600709561957F4F089509
:10038E00AA1BBB1B51E107C0AA1FBB1FA617B707AD
:10039E0010F0A61BB70B881F991F5A95A9F78095C9
:0803AE009095BC01CD010895FA
:1003B6001F920F920FB60F9211248F939F9395B1B0
:1003C60082E0892785B99F918F910F900FBE0F907C
:0403D6001F901895C7
:1003DA0082E08AB98DEF8BB98FEF84B915B817B857
:0603EA008EE388B90895BE
:1003F0000E942602892B31F082E090E09093050163
:0604000080930401089541
:1004060015B84F9906C081E090E09093050180935E
:040416000401089540
:10041A000E942602892B21F01092050110920401F4
:02042A00089533
:10042C0086B18695869591E08927817090E0089534
:10043C0089B182958F7091E08927817090E0089541
:10044C0089B18695869591E08927817090E0089511
:0E045C0086B1869591E08927817090E0089521
:04046A000C940000EE
:02046E0001008B
:02047000010089
:00000001FF
