:100000000C944D000C944D050C94AB0C0C94AB0C63
:100010000C94AB0C0C94AB0C0C94AB0C0C94AB0C84
:100020000C94AB0C0C94AB0C0C94AB0C0C94AB0C74
:100030000C94AB0C0C94AB0C0C9484000C94AB0C97
:100040000C94AB0C0C94AB0C0C94AB0C0C94AB0C54
:100050000C94AB0C0C94E20A0C94AB0C0C94AB0C0F
:100060000C94AB0C0C94AB0C1703280371036103C5
:100070004D03BD03A60391030604F103DC031D0435
:100080002D043D045C0471040100010B80010B018F
:100090000C00195A010C0119800011241FBECFEF6A
:1000A000D8E0DEBFCDBFE8E8F0E040E017C0B59192
:1000B000A59135912591059107FD0CC095918591EC
:1000C000EF01F92FE82F05900D92A217B307D9F78A
:1000D000FE0104C01D92A217B307E1F7E939F40746
:0E00E00031F70E9497020C947500F894FFCF40
:1000EE003031323334353637383941424344454660
:0A00FE000030303030303030300078
:100108001F920F920FB60F9211242F933F934F9384
:100118005F936F937F938F939F93AF93BF93CF9387
:10012800EF93FF9389B1880F880B90910001892381
:1001380080930001C0910C0180910101909102010E
:10014800A0910301B09104010196A11DB11D8093F6
:10015800010190930201A0930301B09304018091DF
:10016800000181111BC06091010170910201809111
:1001780003019091040128EE33E040E050E00E9432
:10018800B009672B682B692B49F480910501909180
:10019800060101969093060180930501CC2309F48A
:1001A8005CC0C13F08F0C0EF8EEF8C0F8C3140F57A
:1001B8006091010170910201809103019091040105
:1001C80028EE33E040E050E00E94B009672B682B2E
:1001D800692BB1F48091090190910A0101969093DD
:1001E8000A01809309018091070190910801019605
:1001F800909308018093070198B188E0892788B90E
:1002080082EE8C0F8E3150F56091010170910201E0
:1002180080910301909104012FE433E040E050E025
:100228000E94B009672B682B692BC1F480910901E2
:1002380090910A01019690930A0180930901809197
:100248000701909108010196909308018093070196
:1002580098B188E0892788B901C0C1E084EC8C0F87
:100268008E3140F560910101709102018091030186
:100278009091040125EB32E040E050E00E94B00983
:10028800672B682B692BB1F48091090190910A01C1
:10029800019690930A01809309018091070190913A
:1002A80008010196909308018093070198B188E0AE
:1002B800892788B986EA8C0F8E3140F56091010153
:1002C8007091020180910301909104012CE132E0C8
:1002D80040E050E00E94B009672B682B692BB1F40D
:1002E8008091090190910A01019690930A018093E7
:1002F80009018091070190910801019690930801E6
:100308008093070198B188E0892788B988E88C0F1D
:100318008E3140F5609101017091020180910301D5
:100328009091040122E831E040E050E00E94B009D9
:10033800672B682B692BB1F48091090190910A0110
:10034800019690930A018093090180910701909189
:1003580008010196909308018093070198B188E0FD
:10036800892788B98AE68C0F8E3140F560910101A2
:1003780070910201809103019091040126E331E01C
:1003880040E050E00E94B009672B682B692BB1F45C
:100398008091090190910A01019690930A01809336
:1003A8000901809107019091080101969093080135
:1003B8008093070198B188E0892788B98CE48C0F6D
:1003C8008E3140F560910101709102018091030125
:1003D8009091040129EE30E040E050E00E94B0091D
:1003E800672B682B692BB1F48091090190910A0160
:1003F800019690930A0180930901809107019091D9
:1004080008010196909308018093070198B188E04C
:10041800892788B9C25DCE3140F56091010170919C
:100428000201809103019091040120E530E040E051
:1004380050E00E94B009672B682B692BB1F48091BA
:10044800090190910A01019690930A01809309018C
:10045800809107019091080101969093080180937B
:10046800070198B188E0892788B9809100018C300C
:10047800E1F488E59BE19093850080938400E8E8A7
:10048800F0E08081918101969183808398B184E026
:10049800892788B98081918188359B4130F480EA29
:1004A8009FE090938900809388008BE080930001FF
:1004B8008091090190910A0164E670E00E94850A22
:1004C800892B59F480EA9FE09093890080938800F3
:1004D80098B184E0892788B914C080910901909166
:1004E8000A0168E873E10E94850A892B51F480EAC1
:1004F8009FE0909389008093880098B184E08927D1
:1005080088B9FF91EF91CF91BF91AF919F918F9152
:100518007F916F915F914F913F912F910F900FBEF7
:060528000F901F901895D2
:10052E000E941D070E94000C0E94340C80910B014A
:10053E000E94D10A80910501909106010A9724F438
:10054E00109200010E94A60C80910B010E94FD07E3
:10055E0080910B010E94250880910B010E944D088D
:10056E0080910B010E94750880910B010E949D08DD
:10057E0080910B010E94C50880910B010E94ED082D
:10058E0080910B010E94150980910B010E943D097B
:10059E0080910B010E94650980910B010E94580CFD
:1005AE0080910B010E949A0C80910B010E948F0684
:1005BE000E94280A0E94AD0AC4E001E00F2EFEE060
:1005CE00CF2EF02D0F2EFDE0EF2EF02D0F2EFCE096
:1005DE00FF2EF02D0F2EFBE0DF2EF02D68948824D9
:1005EE0083F813E00F2EF9E09F2EF02DD2E00F2EA0
:1005FE00FAE0BF2EF02D0F2EF5E07F2EF02D0F2EF0
:10060E00F6E0AF2EF02DE09100018E2F90E08031BC
:10061E00910508F065C1FC01EC5CFF4F0C94A00C39
:10062E0080911401813079F7809107019091080132
:10063E0003974CF7009300010E94120B10921401C5
:10064E00E2CF10920801109207018091070190915C
:10065E0008010A97B4F080910701909108010B9759
:10066E0094F280911801813061F0809113018130F4
:10067E0041F080911801813031F680911301813063
:10068E0011F6C09300010E94220BBDCF10920801FB
:10069E0010920701809107019091080103970CF0C9
:1006AE00B2CF1092180110921301109300010E9404
:1006BE00320BA9CF10920801109207018091070109
:1006CE009091080103970CF09ECFD09300010E94E9
:1006DE00420B99CF109208011092070180911701D9
:1006EE008130A9F48091070190910801029754F08E
:1006FE00809107019091080105974CF40E94640CBB
:10070E00892B29F087E0809300010E94520BD09331
:10071E00170179CF109208011092070180911701ED
:10072E00823009F070CF80910701909108010397F4
:10073E000CF069CFA09200010E94620B64CF8091F1
:10074E001701823081F4809107019091080104977E
:10075E0054F08091070190910801069724F470924D
:10076E0000010E94720B109217014DCF10920801DA
:10077E0010920701809112018130A1F4809107013E
:10078E0090910801039754F0809107019091080110
:10079E00059744F40E94F20B892B21F0B0920001D0
:1007AE000E94820BD09312012ECF1092080110924C
:1007BE00070180911201823051F4809107019091CE
:1007CE000801039724F4909200010E94920B10935B
:1007DE00120119CF10920801109207018091120197
:1007EE00833051F48091070190910801039724F40E
:1007FE00809200010E94A20B1092120104CF8091F0
:10080E000E01813009F0FFCED09200011092080146
:10081E0010920701809107019091080107970CF043
:10082E00F2CE0E94B20B10920E01EDCE1092080184
:10083E0010920701809107019091080103970CF027
:10084E00E2CEF09200010E94C20BDDCE10920801A2
:10085E0010920701809107019091080103970CF007
:10086E00D2CEE09200010E94D20BCDCE80910D012E
:10087E008130C1F48091070190910801059774F0C1
:10088E0080910701909108010A9764F40E941A0C56
:10089E00892B21F40E94400C892B21F0C09200017B
:1008AE000E94E20B10920D01AECE00930001109249
:1008BE0008011092070180911401813009F0A3CE36
:1008CE00809107019091080103970CF09CCE0E9435
:1008DE00120B99CE4F9904C0109200010E94A60CE3
:0A08EE00C09300010E94220B8ECE81
:1008F800CF92DF92EF92FF921F93CF93DF93CDB702
:10090800DEB729970FB6F894DEBF0FBECDBF182FFC
:1009180069017A012FEF30E040E089E0F901DE015A
:100928001196742F0E94270C812F0E94EF09D7017E
:10093800C601072E7CE1B695A795979587957A9578
:10094800D1F7702D8F709927092E000CAA0B8251B0
:100958009F4FAF4FFC018491A7FD808189838F2D24
:100968009927AA27BB278F709927092E000CAA0B55
:1009780082519F4FAF4FFC018491A7FD80818A83EC
:10098800D701C601072E74E1B695A7959795879567
:100998007A95D1F7702D8F709927092E000CAA0B24
:1009A80082519F4FAF4FFC018491A7FD80818B83BB
:1009B800C7018F709927092E000CAA0B82519F4FEF
:1009C800AF4FFC018491A7FD80818C83D701C601BC
:1009D800072E7CE0B695A795979587957A95D1F7D8
:1009E800702D8F709927092E000CAA0B82519F4FEA
:1009F800AF4FFC018491A7FD80818D83BB27AF2D6C
:100A08009E2D8D2D8F709927092E000CAA0B8251CF
:100A18009F4FAF4FFC018491A7FD80818E83D70142
:100A2800C601689413F8B695A79597958795169477
:100A3800D1F78F709927092E000CAA0B82519F4F6E
:100A4800AF4FFC018491A7FD80818F838FE0C8227E
:100A5800DD24C601DD0CAA0B82519F4FAF4FFC016C
:100A68008491A7FD8081888748E0BE016F5F7F4F32
:100A7800812F0E94990729960FB6F894DEBF0FBE02
:100A8800CDBFDF91CF911F91FF90EF90DF90CF9076
:020A98000895BF
:100A9A001F920F920FB60F9211242F933F934F93E9
:100AAA005F936F937F938F939F93AF93BF93EF93CC
:100ABA00FF930E947A0C892B19F081E08093180128
:100ACA000E94640C892B19F081E0809317010E941F
:100ADA000D0C892B19F081E0809314010E944C0CB3
:100AEA00892B19F081E0809313010E94400C892B15
:100AFA0019F081E0809315010E941A0C892B19F0D4
:100B0A0081E08093160180911601813061F0809115
:100B1A001501813041F080911601813039F48091BC
:100B2A001501813019F481E080930D010E94F20BC6
:100B3A00892B19F081E0809312010E94020B892B04
:100B4A0019F081E080930F010E94840C892B19F01F
:100B5A0081E0809310010E946F0C892B19F081E0CB
:100B6A008093110180910F01813061F18091100110
:100B7A00813041F180911101813021F180910F0181
:100B8A00813021F4809110018130E1F080911101CE
:100B9A00813021F4809110018130A1F080910F0100
:100BAA00813021F480911101813061F080910F012F
:100BBA00813059F480911001813039F4809111010A
:100BCA00813019F481E080930E01FF91EF91BF917A
:100BDA00AF919F918F917F916F915F914F913F91CB
:0C0BEA002F910F900FBE0F901F901895D8
:100BF600CF93C82F0E94F20A892B09F470C060E0D7
:100C06008C2F0E94700A892B09F46BC080E00E9429
:100C1600BF0A0E94CC070E94F20A892B09F463C01E
:100C260060E08C2F0E94700A892B09F45EC080E375
:100C36000E948D090E94CC070E94F20A892B09F4B2
:100C460056C060E08C2F0E94700A892B09F451C0AF
:100C560080E30E948D090E94CC070E94F20A892B2C
:100C660009F449C060E08C2F0E94700A892B09F4B0
:100C760044C080E30E948D090E94CC070E94F20ABC
:100C8600892BE9F160E08C2F0E94700A892BC9F14B
:100C960080E20E948D090E94CC070E94F20A892BED
:100CA60091F160E08C2F0E94700A892B71F160E04F
:100CB6008FE00E940C0A0E94CC070E94F20A892B40
:100CC60031F160E08C2F0E94700A892B11F160E0EF
:100CD60081E00E940C0A0E94CC0780E01BC08FEFC7
:100CE60019C08FEF17C08FEF15C08FEF13C08FEFAE
:100CF60011C08FEF0FC08FEF0DC08FEF0BC08FEFBE
:100D060009C08FEF07C08FEF05C08FEF03C08FEFCD
:080D160001C08FEFCF91089599
:100D1E001F93CF93DF93CDB7DEB765970FB6F894D9
:100D2E00DEBF0FBECDBF182F88E493E59A8389836B
:100D3E001B8282E492E49D838C831E8282E493E480
:100D4E0098878F83198682E494E59B878A871C8611
:100D5E008CE493E59E878D871F8680E590E2998BC4
:100D6E00888B1A8A84E590E29C8B8B8B1D8A6DE4AE
:100D7E00812F0E94EF0980910001811107C042E08E
:100D8E00BE016F5F7F4F812F0E94990780910001F6
:100D9E00813039F442E0BE016C5F7F4F812F0E949B
:100DAE009907809100018250833038F442E0BE01F1
:100DBE00695F7F4F812F0E949907809100018550B6
:100DCE00833038F442E0BE01665F7F4F812F0E9470
:100DDE009907809100018850833038F442E0BE01BB
:100DEE00635F7F4F812F0E949907809100018B5086
:100DFE00823038F442E0BE01605F7F4F812F0E9447
:100E0E009907809100018E3039F442E0BE016D5E8B
:100E1E007F4F812F0E94990765960FB6F894DEBF1B
:0C0E2E000FBECDBFDF91CF911F91089542
:100E3A008FE284B985E085B982E08AB98DEF8BB9F2
:100E4A008EE087B980E388B980E58CBD1DBC40E09F
:100E5A0060E081E00E945A0A4FEF61E081E00E945F
:100E6A005A0A4FEF6DE081E00E945A0A4FEF65E09F
:100E7A0081E00E945A0A40E069E081E00E945A0A31
:100E8A0040E060E082E00E945A0A4FE061E082E0BE
:100E9A000E945A0A4FE06DE082E00E945A0A4FE02F
:100EAA0065E082E00E945A0A40E069E082E00E941E
:040EBA005A0A089533
:100EBE000F931F93CF93DF9300D01F92CDB7DEB762
:100ECE00082F142F80E390E39A8389831B82802F4F
:100EDE000E94EF09812F82958F7090E0A0E08251E1
:100EEE009F4FAF4FFC018491A7FD808189831F70B6
:100EFE00812F90E0A0E082519F4FAF4FFC01849173
:100F0E00A7FD80818A8342E0BE016F5F7F4F802FF5
:100F1E000E9499070F900F900F90DF91CF911F9124
:040F2E000F91089582
:100F3200EF92FF920F931F93CF93DF93D82F7B01F2
:100F4200C42F0E94F20A892BE1F060E08D2F0E94EB
:100F5200700A892BC1F08FEF8C0FCC2371F0E7015F
:100F6200082F10E00F5F1F4F0E0D1F1D69E08991C2
:100F72000E940C0A0C171D07C9F70E94CC0780E0DB
:100F820003C08FEF01C08FEFDF91CF911F910F91BF
:060F9200FF90EF900895AE
:100F9800CF93DF9300D000D0CDB7DEB784E980933C
:100FA800BC0019821A821B821C8289819A81AB81BA
:100FB800BC8184369105A105B105A4F489819A8183
:100FC800AB81BC810196A11DB11D89839A83AB8336
:100FD800BC8389819A81AB81BC8184369105A10546
:100FE800B10564F30F900F900F900F90DF91CF91A0
:020FF80008955A
:100FFA001F93CF93DF9300D0CDB7DEB7182F8FE4BE
:10100A00898388E58A8360E0812F0E94EF098091B5
:10101A001801813041F441E0BE016E5F7F4F812F9C
:10102A000E94990707C041E0BE016F5F7F4F812F81
:10103A000E9499070F900F90DF91CF911F91089509
:10104A001F93CF93DF9300D0CDB7DEB7182F8FE46D
:10105A00898388E58A8361E0812F0E94EF09809164
:10106A001701813041F441E0BE016E5F7F4F812F4D
:10107A000E94990707C041E0BE016F5F7F4F812F31
:10108A000E9499070F900F90DF91CF911F910895B9
:10109A001F93CF93DF9300D0CDB7DEB7182F8FE41D
:1010AA00898388E58A8362E0812F0E94EF09809113
:1010BA001501813041F441E0BE016E5F7F4F812FFF
:1010CA000E94990707C041E0BE016F5F7F4F812FE1
:1010DA000E9499070F900F90DF91CF911F91089569
:1010EA001F93CF93DF9300D0CDB7DEB7182F8FE4CD
:1010FA00898388E58A8363E0812F0E94EF098091C2
:10110A001401813041F441E0BE016E5F7F4F812FAF
:10111A000E94990707C041E0BE016F5F7F4F812F90
:10112A000E9499070F900F90DF91CF911F91089518
:10113A001F93CF93DF9300D0CDB7DEB7182F8FE47C
:10114A00898388E58A8364E0812F0E94EF09809170
:10115A001301813041F441E0BE016E5F7F4F812F60
:10116A000E94990707C041E0BE016F5F7F4F812F40
:10117A000E9499070F900F90DF91CF911F910895C8
:10118A001F93CF93DF9300D0CDB7DEB7182F8FE42C
:10119A00898388E58A8365E0812F0E94EF0980911F
:1011AA001601813041F441E0BE016E5F7F4F812F0D
:1011BA000E94990707C041E0BE016F5F7F4F812FF0
:1011CA000E9499070F900F90DF91CF911F91089578
:1011DA001F93CF93DF9300D0CDB7DEB7182F8FE4DC
:1011EA00898388E58A8366E0812F0E94EF098091CE
:1011FA001201813041F441E0BE016E5F7F4F812FC1
:10120A000E94990707C041E0BE016F5F7F4F812F9F
:10121A000E9499070F900F90DF91CF911F91089527
:10122A001F93CF93DF9300D0CDB7DEB7182F8FE48B
:10123A00898388E58A8367E0812F0E94EF0980917C
:10124A000F01813041F441E0BE016E5F7F4F812F73
:10125A000E94990707C041E0BE016F5F7F4F812F4F
:10126A000E9499070F900F90DF91CF911F910895D7
:10127A001F93CF93DF9300D0CDB7DEB7182F8FE43B
:10128A00898388E58A8368E0812F0E94EF0980912B
:10129A001001813041F441E0BE016E5F7F4F812F22
:1012AA000E94990707C041E0BE016F5F7F4F812FFF
:1012BA000E9499070F900F90DF91CF911F91089587
:1012CA001F93CF93DF9300D0CDB7DEB7182F8FE4EB
:1012DA00898388E58A8369E0812F0E94EF098091DA
:1012EA001101813041F441E0BE016E5F7F4F812FD1
:1012FA000E94990707C041E0BE016F5F7F4F812FAF
:10130A000E9499070F900F90DF91CF911F91089536
:10131A00CF93C82F84608093BB0084E88093BC007D
:10132A000E94940C8091B900887F883241F4CB7F67
:10133A00C093BB0084E88093BC000E94940C9091F7
:10134A00B900987F21E030E0983211F020E030E0D7
:06135A00C901CF910895C6
:10136000A1E21A2EAA1BBB1BFD010DC0AA1FBB1FA9
:10137000EE1FFF1FA217B307E407F50720F0A21B1B
:10138000B30BE40BF50B661F771F881F991F1A9488
:1013900069F760957095809590959B01AC01BD01B2
:0413A000CF010895DC
:1013A400CF93C62F019761F42A9881E40E948E0C92
:1013B4008C2F0E948E0C80E00E948E0C2A9A0BC007
:1013C400289881E40E948E0C8C2F0E948E0C80E061
:0A13D4000E948E0C289ACF91089514
:1013DE00CF93DF93C82FD62F0E94F20A892B79F074
:1013EE0060E08C2F0E94700A892B59F068E08D2FD7
:1013FE0080680E940C0A0E94CC0780E003C08FEF29
:0A140E0001C08FEFDF91CF91089528
:10141800CF93DF93D82FC62FCF70807F8C2B0E945D
:101428008D09009771F020E1D29FC00111248C2B07
:101438000E948D0931E020E0892B09F430E0832FE8
:08144800922FDF91CF9108956E
:10145000F89489EF87BD84B5836084BD85B58760C6
:1014600085BD16BC8FEF85BBEEE6F0E08081826023
:10147000808383B7817F83BF83B7816083BF789484
:021480000895CD
:10148200CF93C82F0E94F20A892B71F060E08C2F53
:101492000E94700A892B51F068E081E00E940C0AD8
:1014A2000E94CC0780E003C08FEF01C08FEFCF9185
:0214B20008959B
:1014B400CF93DF93D62FC42F823011F4289801C024
:1014C4002A9880E40E948E0C8D2F0E948E0C8C2F03
:0C14D4000E948E0C2A9ADF91CF9108959F
:1014E000880F6170682B6093BB0084E88093BC0018
:1014F0000E94940C9091B900987F21E030E09831DF
:0A15000011F020E030E0C901089569
:10150A0097FB072E16F4009407D077FD09D00E94A6
:10151A00990A07FC05D03EF4909581959F4F08954E
:08152A00709561957F4F089553
:10153200AA1BBB1B51E107C0AA1FBB1FA617B707F7
:1015420010F0A61BB70B881F991F5A95A9F7809513
:081552009095BC01CD01089544
:10155A0010928000E1E8F0E0808189608083109237
:10156A00820010926F0080EA9FE090938900809336
:04157A008800089548
:10157E008093BB0084E88093BC000E94940C9091F1
:10158E00B900987F21E030E0983211F020E030E091
:04159E00C9010895E2
:1015A200CF93DF93D82F0E94FB05C82F811104C06F
:1015B2008D2F0E94410A01C0CFEF8C2FDF91CF9176
:0215C20008958A
:1015C4001F920F920FB60F9211248F93809179007E
:1015D40080930C018F910F900FBE0F901F90189560
:1015E40084EA8093BC000E94940C9091B900987F87
:1015F40021E030E0983011F020E030E0C901089596
:1016040063E181E090E00E94D209082E000C990B5E
:1016140080959095892F881F8827881F90E00895CA
:1016240041E962E181E00E945A0A46E962E182E00E
:101634000E945A0A40E863E182E00E945A0A08952F
:1016440041E362E181E00E945A0A46E262E182E0FB
:101654000E945A0A40E863E182E00E945A0A08950F
:1016640042E362E181E00E945A0A4AE462E182E0D4
:101674000E945A0A40E863E182E00E945A0A0895EF
:101684004AE262E181E00E945A0A42E962E182E0B0
:101694000E945A0A40E863E182E00E945A0A0895CF
:1016A40046E262E181E00E945A0A4AE862E182E08D
:1016B4000E945A0A40E863E182E00E945A0A0895AF
:1016C4004AE462E181E00E945A0A4AE862E182E067
:1016D4000E945A0A40E863E182E00E945A0A08958F
:1016E40042E962E181E00E945A0A4AE862E182E04A
:1016F4000E945A0A40E863E182E00E945A0A08956F
:1017040042E962E181E00E945A0A4AE862E182E029
:101714000E945A0A40E263E182E00E945A0A089554
:1017240042E962E181E00E945A0A4AE862E182E009
:101734000E945A0A40E463E182E00E945A0A089532
:1017440042E962E181E00E945A0A4AE862E182E0E9
:101754000E945A0A40E863E182E00E945A0A08950E
:1017640042E962E181E00E945A0A49E862E182E0CA
:101774000E945A0A40E863E182E00E945A0A0895EE
:1017840042E962E181E00E945A0A49E862E182E0AA
:101794000E945A0A40E863E182E00E945A0A0895CE
:1017A40042E962E181E00E945A0A4AE862E182E089
:1017B4000E945A0A40E863E182E00E945A0A0895AE
:1017C40041E962E181E00E945A0A46E862E182E06E
:1017D4000E945A0A40E863E182E00E945A0A08958E
:1017E40063E181E090E00E94D20982958695869516
:0C17F400837091E08927817090E00895D7
:1018000080E680937C00EAE7F0E08EEA8083109225
:0A1810007B008081806480830895CE
:10181A0063E181E090E00E94D209869586958695DB
:0A182A0091E08927817090E0089595
:1018340063E181E090E00E94D209829586958770E9
:0A18440091E08927817090E008957B
:10184E00992777FD05C005900D920197E1F7089550
:0A185E0001900D920197E1F7089543
:1018680087B18F7087B988B1806388B981EC80931C
:08187800B8001092B9000895B8
:1018800063E181E090E00E94D2098695869591E01F
:081890008927817090E00895A2
:1018980063E181E090E00E94D20982958F7091E027
:0818A8008927817090E008958A
:1018B0002091090130910A01032E000C440B550BB5
:0818C0006BE00E947C04089516
:1018C80063E181E090E00E94D209869591E0892742
:0618D800817090E008950C
:1018DE0063E182E090E00E94D209869591E089272B
:0618EE00817090E00895F6
:1018F40063E181E090E00E94D20991E08927817040
:0419040090E00895D2
:1019080063E182E090E00E94D20991E0892781702A
:0419180090E00895BE
:0C191C008EBD0DB407FEFDCF8EB5089502
:0C192800ECEBF0E080818823ECF70895E0
:0C19340040910C0160E40E945F070895E0
:0C194000EE0FFF1F0590F491E02D0994BC
:0A194C0098B181E0892788B9089559
:041956000C940000ED
:01195A002765
:00000001FF
